{
    "abi": [
        {
            "type": "function",
            "name": "balances",
            "inputs": [
                {
                    "name": "",
                    "type": "address",
                    "internalType": "address"
                }
            ],
            "outputs": [
                {
                    "name": "",
                    "type": "uint256",
                    "internalType": "uint256"
                }
            ],
            "stateMutability": "view"
        },
        {
            "type": "function",
            "name": "deposit",
            "inputs": [],
            "outputs": [],
            "stateMutability": "payable"
        },
        {
            "type": "function",
            "name": "getBalance",
            "inputs": [],
            "outputs": [
                {
                    "name": "",
                    "type": "uint256",
                    "internalType": "uint256"
                }
            ],
            "stateMutability": "view"
        },
        {
            "type": "function",
            "name": "transfer",
            "inputs": [
                {
                    "name": "_to",
                    "type": "address",
                    "internalType": "address"
                },
                {
                    "name": "_amount",
                    "type": "uint256",
                    "internalType": "uint256"
                }
            ],
            "outputs": [],
            "stateMutability": "nonpayable"
        },
        {
            "type": "function",
            "name": "withdraw",
            "inputs": [
                {
                    "name": "amount",
                    "type": "uint256",
                    "internalType": "uint256"
                }
            ],
            "outputs": [],
            "stateMutability": "nonpayable"
        }
    ],
    "bytecode": {
        "object": "0x6080604052348015600e575f80fd5b5061044a8061001c5f395ff3fe608060405260043610610049575f3560e01c806312065fe01461004d57806327e235e31461007b5780632e1a7d4d146100a6578063a9059cbb146100c7578063d0e30db0146100e6575b5f80fd5b348015610058575f80fd5b50335f908152602081905260409020545b60405190815260200160405180910390f35b348015610086575f80fd5b50610069610095366004610375565b5f6020819052908152604090205481565b3480156100b1575f80fd5b506100c56100c0366004610395565b6100ee565b005b3480156100d2575f80fd5b506100c56100e13660046103ac565b6101f9565b6100c5610335565b335f908152602081905260409020548111156101465760405162461bcd60e51b8152602060048201526012602482015271496e73756666696369656e742066756e647360701b60448201526064015b60405180910390fd5b335f90815260208190526040812080548392906101649084906103e8565b90915550506040515f90339083908381818185875af1925050503d805f81146101a8576040519150601f19603f3d011682016040523d82523d5f602084013e6101ad565b606091505b50509050806101f55760405162461bcd60e51b81526020600482015260146024820152732330b4b632b2103a379039b2b7321022ba3432b960611b604482015260640161013d565b5050565b335f9081526020819052604090205481111561024c5760405162461bcd60e51b8152602060048201526012602482015271496e73756666696369656e742066756e647360701b604482015260640161013d565b335f908152602081905260408120805483929061026a9084906103e8565b90915550506001600160a01b0382165f9081526020819052604081208054839290610296908490610401565b90915550506040515f906001600160a01b0384169083908381818185875af1925050503d805f81146102e3576040519150601f19603f3d011682016040523d82523d5f602084013e6102e8565b606091505b50509050806103305760405162461bcd60e51b81526020600482015260146024820152732330b4b632b2103a379039b2b7321022ba3432b960611b604482015260640161013d565b505050565b335f9081526020819052604081208054349290610353908490610401565b9091555050565b80356001600160a01b0381168114610370575f80fd5b919050565b5f60208284031215610385575f80fd5b61038e8261035a565b9392505050565b5f602082840312156103a5575f80fd5b5035919050565b5f80604083850312156103bd575f80fd5b6103c68361035a565b946020939093013593505050565b634e487b7160e01b5f52601160045260245ffd5b818103818111156103fb576103fb6103d4565b92915050565b808201808211156103fb576103fb6103d456fea264697066735822122064ae0f9a9dd8e72ebe708db8cd70c66534cb473d18788a9a91c1538806a0407164736f6c634300081a0033",
        "linkReferences": {}
    },
    "methodIdentifiers": {
        "balances(address)": "27e235e3",
        "deposit()": "d0e30db0",
        "getBalance()": "12065fe0",
        "transfer(address,uint256)": "a9059cbb",
        "withdraw(uint256)": "2e1a7d4d"
    },
    "id": 20
}